{
  "_format": "hh-sol-artifact-1",
  "contractName": "Tether",
  "sourceName": "contracts/Tether.sol",
  "abi": [
    {
      "inputs": [],
      "name": "decimal",
      "outputs": [
        {
          "internalType": "uint8",
          "name": "",
          "type": "uint8"
        }
      ],
      "stateMutability": "view",
      "type": "function"
    },
    {
      "inputs": [],
      "name": "name",
      "outputs": [
        {
          "internalType": "string",
          "name": "",
          "type": "string"
        }
      ],
      "stateMutability": "view",
      "type": "function"
    },
    {
      "inputs": [],
      "name": "symbol",
      "outputs": [
        {
          "internalType": "string",
          "name": "",
          "type": "string"
        }
      ],
      "stateMutability": "view",
      "type": "function"
    },
    {
      "inputs": [],
      "name": "totalSupply",
      "outputs": [
        {
          "internalType": "uint256",
          "name": "",
          "type": "uint256"
        }
      ],
      "stateMutability": "view",
      "type": "function"
    }
  ],
  "bytecode": "0x60806040526040518060400160405280600681526020017f546574686572000000000000000000000000000000000000000000000000000081525060009081610048919061031a565b506040518060400160405280600481526020017f55534454000000000000000000000000000000000000000000000000000000008152506001908161008d919061031a565b5069d3c21bcecceda10000006002556012600360006101000a81548160ff021916908360ff1602179055503480156100c457600080fd5b506103ec565b600081519050919050565b7f4e487b7100000000000000000000000000000000000000000000000000000000600052604160045260246000fd5b7f4e487b7100000000000000000000000000000000000000000000000000000000600052602260045260246000fd5b6000600282049050600182168061014b57607f821691505b60208210810361015e5761015d610104565b5b50919050565b60008190508160005260206000209050919050565b60006020601f8301049050919050565b600082821b905092915050565b6000600883026101c67fffffffffffffffffffffffffffffffffffffffffffffffffffffffffffffffff82610189565b6101d08683610189565b95508019841693508086168417925050509392505050565b6000819050919050565b6000819050919050565b600061021761021261020d846101e8565b6101f2565b6101e8565b9050919050565b6000819050919050565b610231836101fc565b61024561023d8261021e565b848454610196565b825550505050565b600090565b61025a61024d565b610265818484610228565b505050565b5b818110156102895761027e600082610252565b60018101905061026b565b5050565b601f8211156102ce5761029f81610164565b6102a884610179565b810160208510156102b7578190505b6102cb6102c385610179565b83018261026a565b50505b505050565b600082821c905092915050565b60006102f1600019846008026102d3565b1980831691505092915050565b600061030a83836102e0565b9150826002028217905092915050565b610323826100ca565b67ffffffffffffffff81111561033c5761033b6100d5565b5b6103468254610133565b61035182828561028d565b600060209050601f8311600181146103845760008415610372578287015190505b61037c85826102fe565b8655506103e4565b601f19841661039286610164565b60005b828110156103ba57848901518255600182019150602085019450602081019050610395565b868310156103d757848901516103d3601f8916826102e0565b8355505b6001600288020188555050505b505050505050565b6103b1806103fb6000396000f3fe608060405234801561001057600080fd5b506004361061004c5760003560e01c806306fdde031461005157806318160ddd1461006f57806376809ce31461008d57806395d89b41146100ab575b600080fd5b6100596100c9565b604051610066919061028e565b60405180910390f35b610077610157565b60405161008491906102c9565b60405180910390f35b61009561015d565b6040516100a29190610300565b60405180910390f35b6100b3610170565b6040516100c0919061028e565b60405180910390f35b600080546100d69061034a565b80601f01602080910402602001604051908101604052809291908181526020018280546101029061034a565b801561014f5780601f106101245761010080835404028352916020019161014f565b820191906000526020600020905b81548152906001019060200180831161013257829003601f168201915b505050505081565b60025481565b600360009054906101000a900460ff1681565b6001805461017d9061034a565b80601f01602080910402602001604051908101604052809291908181526020018280546101a99061034a565b80156101f65780601f106101cb576101008083540402835291602001916101f6565b820191906000526020600020905b8154815290600101906020018083116101d957829003601f168201915b505050505081565b600081519050919050565b600082825260208201905092915050565b60005b8381101561023857808201518184015260208101905061021d565b60008484015250505050565b6000601f19601f8301169050919050565b6000610260826101fe565b61026a8185610209565b935061027a81856020860161021a565b61028381610244565b840191505092915050565b600060208201905081810360008301526102a88184610255565b905092915050565b6000819050919050565b6102c3816102b0565b82525050565b60006020820190506102de60008301846102ba565b92915050565b600060ff82169050919050565b6102fa816102e4565b82525050565b600060208201905061031560008301846102f1565b92915050565b7f4e487b7100000000000000000000000000000000000000000000000000000000600052602260045260246000fd5b6000600282049050600182168061036257607f821691505b6020821081036103755761037461031b565b5b5091905056fea26469706673582212203adc9706a3a4ef59db52828ebc3345408b3be05f230a80b9efb4b879ca95909964736f6c634300081a0033",
  "linkReferences": {},
  "deployedLinkReferences": {}
}